:100000000C948C030C94A9030C94A9030C94A903DD
:100010000C94A9030C94A9030C94A9030C94CD2867
:100020000C94A9030C94A9030C94A9030C94A903A0
:100030000C94A9030C94A9030C94A9030C94A90390
:100040000C94A9030C9431290C94A9030C94A903D2
:100050000C94A9030C94C1220C94A9030C943E2A7D
:100060000C94A9030C94FE290C94A9030C94A903E5
:100070000C94A9030C94A9030C94A9030C94A90350
:100080000C94A9030C94A9030C94A9030C94A90340
:100090000C94A9030C94A9030C94A9030C94A90330
:1000A0000C94A9030C94A9030C94A9034552524F34
:1000B000523A20727820627566666572206F7665A6
:1000C00072666C6F770A0025752000257520002563
:1000D0006C7520002569200025686875256E00254F
:1000E00075256E002569256E0023737069313D25E5
:1000F0007820647276313D256C7820677374313DC9
:10010000257820676366313D256C780A002373707B
:1001100069303D257820647276303D256C78206703
:100120007374303D257820676366303D256C780A0E
:1001300000256920000025642E25642E25642553A2
:100140002000435A5058253473582533735825637B
:1001500025357320004E4120000103050E0F1112BA
:1001600013151617383A000204253032780025643A
:100170002025642000256C692000253032686878CD
:10018000200025686869256E00256C69256E0025AC
:100190006C75256E00AA6A5A56555595A5A9AA45AB
:1001A00052524F523D25640A00237477686F206FC6
:1001B00066667365743D256420646973743D2564C7
:1001C0000A00237477686F20736574206F66667306
:1001D0006574423A2025640A00237477686F20739F
:1001E0006574206F6666736574413A2025640A0061
:1001F000490053005F006D007D009000A500BD0028
:10020000D900F8001C0143016E019C01CE010202DD
:1002100037026C02A102D30202032D0353037503BC
:100220009103A903BD03CD03DA03E303EB03F10359
:10023000F503F8032325642025752025750A00257C
:100240006C640A0023494E54360A00236F6C6963BC
:100250006E745F74696C743D256868750A00236F5D
:100260006C69636E745F746F7765723D256868753D
:100270000A00236472765F7374617475735B25641E
:100280005D3D2530386C780A00237370695F7374A4
:10029000617475735B25645D3D2530326868780A4A
:1002A00000000A0014F000F0001407BC0200000077
:1002B00000B004DC05A000A00010074C0400000002
:1002C00000000A0014F000F0001A09BC020000004F
:1002D0000064002C01500050001400DC05000000F8
:1002E00000DC05DC05000000002C283408000000BC
:1002F0000090019001000000002C3F000000000071
:1003000000D606D606000000002C28D0070000000A
:1003100000000F0014C800C8000F037E0400000096
:1003200000C409983AFA0096001604640000000020
:1003300000C4094C1DFA0096001001F401000000F1
:1003400000800C983AFA00FA000A039808000000AE
:100350000064009600320032000F00DC050000004F
:1003600000800CC044FA00FA002206F401000000EC
:1003700000800CC044FA00FA001206F401000000EC
:100380000040068025C800C8003F04F401000000BA
:1003900000C4094C1D5E015E010C027805000000DE
:1003A0000019001D00220028002E00360040004BDE
:1003B00000580069007C009200AD00CC00F1001AEA
:1003C000014A017E01B701F40133027102AF02E874
:1003D000021C034A0372039303AD03C303D303E078
:1003E00003E903F0036B696C6C65640A004D4355C7
:1003F00053523D3078253032780A00726561647955
:100400000A006265657081626F6F74B56565636CC3
:100410009F65657278A065657778A16563686FAA46
:1004200066616E65B366616E738A6670776DB2667B
:1004300072706D9D6D6F74728D706C65648270707A
:100440007374BF7070776DB170737064B9727365D7
:100450006EAD72736D65AF72737374AE7367626302
:10046000BA73676264BB7368646E8374656D709EF3
:1004700074696366A774696373A974696375967414
:10048000696863C17469686F9874696D61A3746900
:100490007068BD7469706FA5746973679A746973C5
:1004A00074C374726177B674776366A67477637386
:1004B000A874776375957477646E8F74776863C07A
:1004C0007477686F9774776D61A274777068BC7485
:1004D00077706FA4747773679974777374C2747745
:1004E00075708E756C6564847570776DB8766F6C99
:1004F00074B076726177B77764656CBE7769646C47
:10050000B4666D736BC4676F7365C574777466C8C2
:1005100074697466C974697363C775737461CA75E5
:100520006C6364CE74776766CB74696766CC5F7002
:100530006F72E15F646472E25F70696EE3746D63B1
:1005400063CD6469720F656E610C656E64116C65D4
:10055000640D6C6F67426D6F741072737401736514
:1005600072037473744376657202726576137075E4
:100570006E12012C0643FA198325068D1B0697106F
:10058000069805069FEB0EB45612B5F305BBEF05B2
:10059000C0DE05C1CD05C5150E008F1B01011D0272
:1005A000D41A03431912470C13290C0C011D0D0119
:1005B0001D0F011D10011D11011D42011D82011D94
:1005C00084EA1C8A011D95011D96011D97F01A9859
:1005D000F01AC7E01C99011D9A011D9D0B1C9E215C
:1005E0001BB0211BB6421CB7421CB1011DB9011D35
:1005F000B8011DB3011DA4BC1AA5191BA6E41DA7B3
:10060000E41DA8F01AA9F01AAAF01AAD011DAE0156
:100610001DBA011DBB8F1ABC5B1CBD5B1CBF7E1BC2
:10062000C03A1BC13A1BC4F01AC8011DC9011DCA3A
:100630005B1B0C38180D38180F3818103818113883
:100640001842381883381881C61482381884D6178F
:100650008E06158F06158A38189538189638189909
:10066000F1129AF112A26712A3F613A46712A5F66B
:1006700013A61A17A71A17A8F112A9F112AA381867
:10068000B13818B93818B838189D6714AD3818AF94
:100690006712BE0615BC0615BD0615C2F112C3F1E0
:1006A00012C0BF13C18813C43818BFF616C7C316CB
:1006B000E15B16E35B16E25B16CA1616CBBB15CCE4
:1006C0008815CEEE15A6A61DA7A61DE1901CE390E9
:1006D0001CE2901C6525640A006F6B0A00455252AB
:1006E0004F523A20636F6D6D616E64206F76657254
:1006F000666C6F770A0045464765666700202B2DBC
:100700002E30313233343536373839680063646916
:100710006E6F70737578580011241FBECFEFDAE04A
:10072000DEBFCDBF12E0A0E0B1E0E2E5F2E602C03C
:1007300005900D92AA39B107D9F725E0AAE9B2E0F0
:1007400001C01D92AC3BB207E1F70E94071E0C945A
:1007500027310C940000CF92DF92EF92FF921F930B
:10076000CF93DF93FB01EE5BFF4F2591349182170E
:1007700093070CF056C0FB012591349128173907D7
:100780000CF052C013E2C1E2D0E0B0E0A0E021E101
:10079000115019F490E080E03CC030E0A901440F12
:1007A000551FFB01E40FF51FE590F490FA01329616
:1007B000E60FF71FC590D490A901C816D9063CF4DE
:1007C0009E01240F351F35952795DA01E1CF8E154F
:1007D0009F0544F49D01240F351F35952795EA01A7
:1007E000AD01F3CFBC016E197F094EEC4603C00189
:1007F000479F900D1124B6016E197F090E947E2D2E
:100800004203C001439F900D11248E519B4F860FD0
:10081000971FDF91CF911F91FF90EF90DF90CF90C6
:10082000089580E79EEFF5CF82EE94E0F2CFF89442
:100830002091390430913A04282B392B30933A0413
:100840002093390478942091390430913A04282374
:100850003923232BC1F70895F8942091390430915E
:100860003A04282B392B30933A0420933904789496
:10087000089580FD2D9A81FD2E9A2D982E98089529
:10088000813011F0599A08955C9A0895813011F0E1
:10089000599808955C980895E5E1F1E090819A7F78
:1008A000282F2170922B880F8470982B908382E0E0
:1008B00090E00C94170490911501892F8695827011
:1008C0009170892B089593E0892790E0E5E1F1E0AC
:1008D0009C01220F331F2270880F991F880F991FC8
:1008E0008870822B2081257F822B808382E090E09C
:1008F0000C9417042091150130E021FB882780F922
:1009000035952795359527952270282B83E08227EA
:10091000089561EA73E096958795969587950C946E
:10092000AB032091D50421FF29C09C013695279562
:1009300036952795AAEBB3E10E94B42D9B01AC013B
:100940009AE056954795379527959A95D1F744277C
:100950005527A2EBB9E00E94C32DAB01BC012AE0F0
:1009600076956795579547952A95D1F780910B0114
:1009700090910C01841B950B97FF02C090E080E0E2
:100980000895CF93DF93F89492E09093340490917C
:10099000D904692F682770E0C091D604D091D7049C
:1009A000EBEDF4E0ACE1B4E030E020E0AB01022E8E
:1009B00002C0559547950A94E2F740FF0AC0D383D9
:1009C000C283468150E013965C934E9312975183F5
:1009D00040832F5F3F4F379618962330310531F70C
:1009E0001092350424E0209336049870982B90934D
:1009F000D9047894DF91CF9108958093D50484FF32
:100A000013C028988091D50485FF10C05D9880910F
:100A100016019091D50491FF0BC08360809316015D
:100A200088E090E00C942C04289AECCF5D9AEFCFEC
:100A30008C7FF4CF3F9A882311F0479A0895479806
:100A40000895E6EDF4E08381886083830895CF9371
:100A5000DF93EB01009749F410929000D0930C04BF
:100A6000C0930B04DF91CF910895BC0190E080E02A
:100A70000E9499309B01AC0160E074E284E799E444
:100A80000E94F82F20E030E040E05FE30E948B2FCF
:100A90000E946A30683C710510F468EC70E0709355
:100AA00099006093980080E480939000D7CF809164
:100AB0008305803B09F44AC030F5883909F449C000
:100AC00090F4823409F448C030F48D3009F447C002
:100AD00090E080E00895823809F444C08739C1F776
:100AE00081E091E00895883A09F43FC028F48E39F6
:100AF00079F782E194E00895893AD1F18A3A41F791
:100B000087E895E00895883BB1F178F4833BB1F133
:100B100028F4813BE9F682E091E00895863B89F173
:100B2000873BB1F682EF93E00895803C69F138F499
:100B3000893B69F18A3B61F684EC92E00895813C3F
:100B400049F1843C29F687E394E0089585E091E03B
:100B5000089580E091E0089580EB92E0089585ED9E
:100B600094E008958BE695E0089584E091E008957F
:100B700083E091E008958EE695E0089585E394E0A2
:100B800008958AEF93E0089583E191E0089587E165
:100B900091E0089581E191E008958091080481FD3C
:100BA0000BC081E0809300018FEF9FEF90931201C3
:100BB0008093110180E008958EEF089580910804DC
:100BC00080FD0BC081E0809301018FEF9FEF909338
:100BD000100180930F0180E008958EEF0895109228
:100BE000C40280E0089587E797E790930108809317
:100BF000000888E198E00FB6F894A895809360000B
:100C00000FBE90936000F894FFCF8091080481FD9F
:100C100005C081E08093000180E008958EEF089583
:100C20008091080480FD05C081E08093010180E08F
:100C300008958EEF089580E00E9463048FEF809303
:100C400001018093000180E0089580E00E941A0570
:100C50001092110480E0089588E198E00FB6F894AE
:100C6000A895809360000FBE90936000F894FFCF2A
:100C7000FB0190E02491281307C03196859194914F
:100C8000009741F0FC0109949F5F33964913F2CF1E
:100C900089EF08958AEF08951F93CF93DF93C42FB0
:100CA000D0E02196215078F0DC01FB0130E01D916D
:100CB000549115130DC03F5F31964313F8CFFB01DC
:100CC000E40FF11D2491822FDF91CF911F910895A0
:100CD0006C0F7D1FE7CF8EBD0DB407FEFDCF8EB527
:100CE0000895CF93C82F80E58CBD1DBC2C9881E45E
:100CF0000E946B068C2F0E946B068FEF0E946B0682
:100D00002C9ACF910895CF93DF93D82FC62F80E5EB
:100D10008CBD1DBC2C9880E40E946B068D2F0E9418
:100D20006B068C2F0E946B062C9ADF91CF91089551
:100D30008F929F92AF92BF92FF920F931F93CF9388
:100D4000DF93562FA091A802B091A902C82FD0E03E
:100D500095E2899FF0011124E950FB4F628D738D5C
:100D60006A0F7B1F738F628F808D918D21893289ED
:100D70002817390708F425C10091AC021091AD0283
:100D8000800F911F821B930B918F808F4789F0906A
:100D90000804052F10E0980184E0220F331F8A9584
:100DA000E1F78F2D90E08223932383889488A58890
:100DB000B688892B09F452C081E0881A9108A108ED
:100DC000B108838A948AA58AB68A41FF50C085E219
:100DD0008C9FF0018D9FF00D1124E950FB4F27816E
:100DE00030856F3F710511F008F03EC0A29FB00141
:100DF000A39F700DB29F700D112490E080E033E04E
:100E0000660F771F881F991F3A95D1F725E22C9F0F
:100E1000F0012D9FF00D1124E950FB4F878490883D
:100E2000A188B288860E971EA81EB91E8786908A52
:100E3000A18AB28A848D958D0197958F848F892B95
:100E400009F084C0842F8D7F42FF06C02581368142
:100E5000328B218B108A1786482F78C09FEF891A12
:100E6000990AA90AB90AADCF0E94B42DC8CF42FF92
:100E700027C085E28C9FF0018D9FF00D1124E95071
:100E8000FB4F868D978DA0A1B1A10197A109B10952
:100E9000868F978FA0A3B1A3892B8A2B8B2B09F068
:100EA00055C0942F9B7F43FD09C0852F8095F82264
:100EB000F09208041786108A118A128A492F46C0B8
:100EC00043FF44C085E28C9FF0018D9FF00D1124FB
:100ED000E950FB4F218532856F3F710511F008F015
:100EE00058C0A29FB001A39F700DB29F700D112436
:100EF00090E080E023E0660F771F881F991F2A95F6
:100F0000D1F725E22C9FF0012D9FF00D1124E9501F
:100F1000FB4F87849088A188B288861A970AA80A0E
:100F2000B90A8786908AA18AB28A82A193A1019781
:100F300093A382A3892B51F4477F852F8095F822B4
:100F4000F09208041786108A118A128A85E28C9F13
:100F5000F0018D9FF00D1124E950FB4F84A18823EF
:100F6000D9F0815084A385E28C9FF0018D9FF00D14
:100F70001124E950FB4F478B138E128E852FDF9182
:100F8000CF911F910F91FF90BF90AF909F908F9046
:100F900008950E94B42DAECF8091AA029091AB0229
:100FA00008231923012BF9F280910804952F9095BD
:100FB0008923809308048091B102852B8093B1022C
:100FC000D2CF821B930B918F808F50E0D7CF8F921F
:100FD0009F92AF92BF92CF92DF92EF92FF920F93C8
:100FE0001F93CF93DF936A017B01082F10E095E2F6
:100FF000899FE0011124C950DB4FAB85BC852D854D
:101000003E854D01820E931EB12CA12CC814D9042B
:10101000EA04FB0448F1BD8FAC8FC818D908EA0870
:10102000FB08CE8EDF8EE8A2F9A23BA32AA386E0BE
:10103000AB2B09F484E0232B09F0886095E2909FA4
:10104000F001919FF00D1124E950FB4F878BDF9148
:10105000CF911F910F91FF90EF90DF90CF90BF90B5
:10106000AF909F908F900895AB0196010E94C32D81
:10107000A50194010E94922D3D8F2C8F1E8E1F8EF4
:1010800018A219A2C21AD30ADBA2CAA28AE0D6CF3A
:101090009F92AF92BF92CF92DF92EF92FF920F9307
:1010A0001F93CF93DF93982E6A017B01082F10E0E6
:1010B000C1E0D0E002C0CC0FDD1F8A95E2F7B0900E
:1010C00008048C2F8B2109F04DC0C114D104E10418
:1010D000F10491F1AC2EA0940E945B041C141D0439
:1010E0001E041F045CF58A210E944C048C2F8295FB
:1010F000807F8095B822B0920804B701A601892D9F
:101100000E94E70785E2809FF001819FF00D112486
:10111000E950FB4F108A178683819481928B818BD3
:1011200080E484A38091B102A822A092B1028091B0
:101130000804C82BC093080480E015C08C2B0E94C3
:101140004C04CE0124E0880F991F2A95E1F7B82AB4
:10115000B092080444275527BA014C195D096E095D
:101160007F09CDCF8FEFDF91CF911F910F91FF902E
:10117000EF90DF90CF90BF90AF909F900895CF9267
:10118000DF92EF92FF920F931F93CF93DF93C82EBE
:10119000D12C95E2899FE0011124C950DB4F0D81CC
:1011A0001E818B819C817801E81AF90A080F191FAA
:1011B0002F8138852115310509F45EC0B70190E013
:1011C00080E0ECE0660F771F881F991FEA95D1F742
:1011D00050E040E00E94922DF4E0569547953795F7
:1011E0002795FA95D1F7D8010E94C32D6C5D7B40FD
:1011F0008F4F9F4F28E438EE41E050E00E94922D3F
:101200003C872B8785E28C9DE0018D9DD00D1124BC
:10121000C950DB4F29853A852115310581F1B70188
:1012200090E080E04CE0660F771F881F991F4A9579
:10123000D1F750E040E00E94922D64E0569547952A
:10124000379527956A95D1F7D8010E94C32D6C5D1B
:101250007B408F4F9F4F28E438EE41E050E00E94E2
:10126000922D3E872D87DF91CF911F910F91FF9097
:10127000EF90DF90CF9008951C861B86C3CF1E860B
:101280001D86F1CFFF920F931F93CF93DF93F82E1C
:10129000EB01F11049C080E890E00E9417048091B2
:1012A000E1039091E203A091E303B091E403B7FF5F
:1012B000F2CF0F2D10E085E2F89EF0011124E950E5
:1012C000FB4F88819981948383838A819B81968354
:1012D00085838C819D81908787838E819F81928772
:1012E00081878F2D0E94BF08F801E151FC4F88854E
:1012F0008083F801E351FC4F89858083000F111F23
:10130000F801E751FC4F8A859B859183808380E0BB
:1013100097E0F11002C080E790E0DF91CF911F913C
:101320000F91FF900C94170480E098E00E9417043E
:101330008091E5039091E603A091E703B091E80363
:10134000B7FFA7CFB6CFCF92DF92EF92FF920F9366
:101350001F93CF93DF93182FF62EEA010CE50CBDF7
:101360001DBC0E9446048F2D0E946B0680E00E94E7
:101370006B0680E00E946B0680E00E946B0680E0B6
:101380000E946B06812F0E9440040CBD1DBC812F62
:101390000E94460480E00E946B06082FE12FF0E0D7
:1013A000E854FD4F808380E00E946B0690E0B0E03F
:1013B000A0E0CC24D82EE92EFA2E80E00E946B0605
:1013C000C82AFE2CED2CDC2CCC2480E00E946B067D
:1013D000C82AFE2CED2CDC2CCC2480E00E946B066D
:1013E000C82A812F0E944004C882D982EA82FB82E7
:1013F000802FDF91CF911F910F91FF90EF90DF90A1
:10140000CF900895EF92FF920F931F93CF93DF93A6
:10141000C82FE62ED22F132F042FF52E8CE58CBD6E
:101420001DBC8C2F0E9446048E2D0E946B068F2DB2
:101430000E946B06802F0E946B06812F0E946B0614
:101440008D2F0E946B068C2F0E94400480E0DF915C
:10145000CF911F910F91FF90EF900895CF93DF935D
:1014600000D000D0CDB7DEB719821A821B821C8251
:10147000AE014F5F5F4F61E00E94A30989810F9029
:101480000F900F900F90DF91CF910895CF92DF9240
:10149000EF92FF9299E0899FF0011124E553FC4FF0
:1014A000C080D180E280F38090EFF922262F30E0D7
:1014B00050E040E0522F44273327222722273327AA
:1014C00044275F702C293D294E295F2920833183D1
:1014D000428353836CEEFF90EF90DF90CF900C949B
:1014E000020A99E0899FF0011124E553FC4F6683BD
:1014F000262F660F330B440B550BA90133272227E8
:101500006DEE0C94020ACF93DF93C82FD62F81E0A3
:10151000603210F0D69580E099E0C99FF001112467
:10152000E553FC4F20813181428153814D7F90E012
:10153000B0E0A0E061E1880F991FAA1FBB1F6A9568
:10154000D1F7282B392B4A2B5B2B20833183428305
:101550005383D483D5836CEE8C2F0E94020A2D2FE7
:1015600030E0322F222722273F71032E000C440B3C
:10157000550BDF712D2B4F6060E98C2FDF91CF91E0
:101580000C94020A99E0899FF0011124E553FC4F65
:101590008581408151816281738161FB442740F9DB
:1015A000411101C0880F08950F931F93CF93DF93CC
:1015B000EB01082F10E095E2899FF0011124E9501A
:1015C000FB4F2381348139832883258136813B83F6
:1015D0002A83278130853D832C83218532853F8373
:1015E0002E830E94C20A888789E0809FF001819F34
:1015F000F00D1124E553FC4F868189878781908502
:101600009B878A87DF91CF911F910F9108951F9338
:10161000CF93DF9300D000D0CDB7DEB7182F83ED86
:1016200090E0A3E0B4E189839A83AB83BC8329E093
:10163000129FF0011124E553FC4F80839183A28314
:10164000B38380E18483858383E086838CED95E09A
:101650009087878323ED30E043E054E16CEE812FE7
:101660000E94020AAE014F5F5F4F6CE6812F0E941D
:10167000A30989819A81AB81BC81833D9105A340F7
:10168000B44159F520E030E0A90161E9812F0E94C1
:10169000020A20E030E043E051E06DEE812F0E942D
:1016A000020A2CED35E040E050E064E9812F0E9411
:1016B000020A20E831E340E050E060E8812F0E9418
:1016C000020A812F0E942E0A80E00F900F900F9047
:1016D0000F90DF91CF911F9108958FEFF6CF109269
:1016E0000704109202048091D30480FD04C010927C
:1016F00004041092030481FD04C0109206041092A9
:1017000005040895F89488E198E00FB6F894A89538
:10171000809360000FBE9093600085EA9AE59093F5
:10172000010980930009FFCF90913D0480913C0412
:101730002FEF3FEF891771F0E92FF0E0E15CFB4FED
:10174000208130E09F5F80913B04981708F090E083
:1017500090933D04C90108958093CE008091C80004
:1017600086FFFCCF8091C80080648093C80090E021
:1017700080E00895EF92FF920F931F93CF93DF9332
:10178000D82F082F10E0C80188549D4F7C01FC0120
:1017900080811F928F931F92DF9389E892E09F933D
:1017A0008F930E944C2EF70180811F928F931F927E
:1017B000DF9382E792E09F938F930E944C2EF70174
:1017C000C081C3708DB79EB70C960FB6F8949EBFBC
:1017D0000FBE8DBFC111C0E8000F111F000F111FF8
:1017E000F801EF51FC4F80819181A281B381B2FD5C
:1017F000C062B1FDC064DD2389F08091C6031F92F1
:101800008F938BE492E09F938F930E944C2E0F90C6
:101810000F900F900F908091C60310C08091C70366
:101820001F928F938EE592E09F938F930E944C2E90
:101830000F900F900F900F908091C703843108F0A4
:10184000C0618C2FDF91CF911F910F91FF90EF908E
:101850000895E1ECF4E0808120E1829FC001112431
:10186000992721812F70822B9F938F931F9286E05F
:101870008F938EE691E09F938F930E944C2E0F9052
:101880000F900F900F900F900F9080E00895CF92DF
:10189000DF92EF92FF920F931F93CF93DF93CDB719
:1018A000DEB760970FB6F894DEBF0FBECDBF89E5F7
:1018B00091E08E010F5F1F4F7E0121E1E20EF11CCE
:1018C000D80121E2FC013491E32FF0E0209357008E
:1018D000E491ED930196AE15BF05A1F789E6C82EF8
:1018E00081E0D82EF80181918F01282F082E000C5D
:1018F000330B3F938F93DF92CF920E944C2E0F9029
:101900000F900F900F900E151F0561F780E0609605
:101910000FB6F894DEBF0FBECDBFDF91CF911F9100
:101920000F91FF90EF90DF90CF900895BF92CF92EC
:10193000DF92EF92FF920F931F93CF93DF9300D02C
:1019400000D0CDB7DEB7B82E11E001C0110F8A95D7
:10195000EAF7F89400E1C12CD12C7601812F0E9486
:1019600039048BE99FE00197F1F700C00000812F57
:101970000E94390419821A821B821C82AE014F5FB9
:101980005F4F62E18B2D0E94A30989819A81AB810F
:10199000BC81AF70BB27C80ED91EEA1EFB1E8BE9A7
:1019A0009FE00197F1F700C000000150B9F678946C
:1019B000C60124E0969587952A95E1F70F900F9040
:1019C0000F900F90DF91CF911F910F91FF90EF90AB
:1019D000DF90CF90BF9008951F93CF93DF9300D0F7
:1019E00000D0CDB7DEB7162FEFECF7E03197F1F767
:1019F00000C00000F89419821A821B821C82AE017A
:101A00004F5F5F4F64E00E94A3098981789481272A
:101A100083710F900F900F900F90DF91CF911F91D6
:101A20000895EF92FF920F931F93CF93DF93D82FD8
:101A300001E010E001C0000F8A95EAF70E947A04E5
:101A4000F82E0E945B04E82EC02FC0958F2D8C23AA
:101A50000E9463048E2D8C230E944C0460E18D2F24
:101A60000E94EC0CC82FD13061F12D9A61E18D2FCD
:101A70000E94EC0CC82BD13031F12D988E2D802B8B
:101A80000E944C0462E18D2F0E94EC0CC82B802F29
:101A90000E9439048F2D802B0E94630462E08D2FF9
:101AA0000E94EC0CC82B8E2D0E944C048F2D0E949E
:101AB00063048C2FDF91CF911F910F91FF90EF90D6
:101AC00008952E9AD3CF2E98D9CF0F931F93CF93EB
:101AD000DF93EB01482F50E02091080430E0082EFE
:101AE00002C0359527950A94E2F720FD43C095E2A0
:101AF000949FF001959FF00D1124E950FB4F43890D
:101B00005489658976898E010D2E000C220B330BCA
:101B1000400F511F621F731F438B548B658B768B55
:101B200001E010E001C0000F8A95EAF7D7FF10C06E
:101B3000D195C195D1090E945B04802B0E944C0471
:101B4000219760F480E0DF91CF911F910F9108956C
:101B50000E945B04902F90958923F0CFF894802FFA
:101B60000E94390478948FE99FE00197F1F700C053
:101B70000000E6CF8EEFE7CFFF920F931F93CF9336
:101B8000DF93F82E8B01C82FD0E09E012F5F3F4FCF
:101B900080E0922F9295907F0E941704FE01EE0F35
:101BA000FF1FE352FC4F20813181C801821B930B40
:101BB000C856DD4F688170E0660F771F0E947E2D4A
:101BC000D62FC72F1F930F933F932F937F936F931E
:101BD00084E392E09F938F930E944C2E8DB79EB723
:101BE00008960FB6F8949EBF0FBE8DBF6D2F7C2F49
:101BF0008F2DDF91CF911F910F91FF900C94650D68
:101C0000262F50E0542F442780589F4F480F591FCC
:101C100060E0752F822F90E0880F991F681B790B69
:101C200060587109822F0C94BC0D83E080936B0582
:101C30000E94210580E48093170184E0809384054D
:101C400080E00895EF92FF921F93CF93DF937C0182
:101C5000CB01142F160F181306C0DF91CF911F91DF
:101C6000FF90EF900895EC01C7010E94472F8993E0
:101C70008FEFE81AF80ACE01EECF1F93CF93DF93D0
:101C8000CDB7DEB760970FB6F894DEBF0FBECDBFFD
:101C9000182F67FD18C020E032E0811102C020E05B
:101CA00031E040E16402C001112440E1BE016F5FF8
:101CB0007F4F820F931F0E94220EBE016F5F7F4FE6
:101CC000812F0E94420960960FB6F894DEBF0FBEC6
:101CD000CDBFDF91CF911F910895EF92FF921F9397
:101CE000CF93DF937C01142F115030F4DF91CF910B
:101CF0001F91FF90EF900895EB016991C7010E9439
:101D0000552F8FEFE81AF80ABE01EECFBF92CF929F
:101D1000DF92EF92FF920F931F93CF93DF93CDB794
:101D2000DEB760970FB6F894DEBF0FBECDBFB82EFA
:101D3000162FBE016F5F7F4F0E94D40AE12C92E004
:101D4000F92EB11003C0E12CFF24F39417FD1CC041
:101D500020E11202C001112440E1BE016F5F7F4FFC
:101D60008E0D9F1D0E946D0E60960FB6F894DEBF1B
:101D70000FBECDBFDF91CF911F910F91FF90EF90DC
:101D8000DF90CF90BF90089510E000E06E0181E1F8
:101D9000C80ED11CF801B1101BC0EF5DFC4FCE0185
:101DA00001962491DC012D93CD013196AC15BD0532
:101DB000C1F740E1BE016F5F7F4FC8018E0D9F1DCF
:101DC0000E946D0E005F1F4F0038110519F7CCCF30
:101DD000EF55FD4FE4CFCF93DF93C0E0D1E06FEF3D
:101DE000CE010E94552F2196C63183E0D807B9F75E
:101DF00080E0DF91CF9108958091BB049091BC0465
:101E0000A091BD04B091BE0485FF07C0609104019C
:101E100067FD03C080E00E94860E8091BB04909114
:101E2000BC04A091BD04B091BE0486FF07C06091C0
:101E3000030167FD03C081E00E94860E8091BB0410
:101E40009091BC04A091BD04B091BE0487FF04C072
:101E50006FEF80E00E94860E8091BB049091BC04DD
:101E6000A091BD04B091BE0490FF04C06FEF81E06B
:101E70000E94860E8091BB049091BC04A091BD0489
:101E8000B091BE0491FF08C06091130170911401DC
:101E900080E093E00E94672F8091BB049091BC0486
:101EA000A091BD04B091BE0492FF08C060911101E1
:101EB0007091120180E193E00E94672F8091BB0432
:101EC0009091BC04A091BD04B091BE0493FF08C0E2
:101ED00060910F017091100182E093E00E94672FE2
:101EE0008091BB049091BC04A091BD04B091BE044C
:101EF00094FF08C060910D0170910E0182E193E0A2
:101F00000E94672F8091BB049091BC04A091BD04F6
:101F1000B091BE0495FF0CC06091C00484E193E0D1
:101F20000E94552F6091BF0485E193E00E94552FD8
:101F30001092BB041092BC041092BD041092BE0417
:101F40000895CF92DF92EF92FF9280916C058823E3
:101F5000E9F08630B9F048F4833071F0843081F0D4
:101F6000FF90EF90DF90CF900895873069F0883030
:101F7000B9F710926C05F4CF84E080936C05F0CF34
:101F800085E0FBCF87E0F9CF88E0F7CF80910101B2
:101F900018165CF4833009F40DC10CF0A1C0813037
:101FA00009F4AFC0823009F4D7C08091000118163F
:101FB0005CF4843009F452C20CF0E9C1813009F4B8
:101FC00028C2833009F43EC2F894F090F1031092D5
:101FD000F1037894FF2009F4C3CFF0FE10C0809184
:101FE000FA039091FB0360EF71E0969587959695C3
:101FF00087950E94AB039093130480931204F1FE23
:102000000AC08091FC039091FD030E948904909383
:10201000150480931404F2FE0AC08091FE0390918F
:10202000FF030E9489049093170480931604F3FE23
:102030000AC080910004909101040E948904909349
:10204000190480931804F4FE0AC08091F203909161
:10205000F3030E9491049093060180930501F5FE1D
:102060000AC08091F4039091F5030E94910490932B
:10207000080180930701F6FE0AC08091F603909153
:10208000F7030E94910490930A0180930901F7FEDF
:1020900067CF2091F8033091F9033695279536954F
:1020A0002795AAEBB3E10E94B42D9B01AC019AE005
:1020B00056954795379527959A95D1F744275527F3
:1020C000A8E3BAE10E94C32D2AE0969587957795FB
:1020D00067952A95D1F770930C0160930B0140CF5F
:1020E000843009F49FC0853009F05FCF80910804E7
:1020F00080FD5BCF8091B10280FD47C1109201014C
:1021000054CF1092B60280910A0590910B05A091D0
:102110000C05B0910D058093B2029093B302A09389
:10212000B402B093B5021092040160E080E00E9416
:102130003D0E0E947A0481600E94630480916D05C7
:10214000816080936D0540EE53E964E070E080E0CB
:102150000E94480882E029C08091080480FD25CFB4
:102160008091B10280FF24C02FEF31EE84E0215036
:1021700030408040E1F700C0000080910A05909156
:102180000B05A0910C05B0910D058093B2029093C0
:10219000B302A093B402B093B50240E058EF6FEFE2
:1021A0007FEF80E00E94480883E080930101FDCE2C
:1021B0008EEFFBCF8091080480FDF7CE8091B102B5
:1021C00080FDE3C080910A0590910B05A0910C055C
:1021D000B0910D058093B2029093B302A093B40224
:1021E000B093B50281E08093040161E080E00E9439
:1021F0003D0E80910A0590910B05A0910C05B091C0
:102200000D058093B2029093B302A093B402B093F1
:10221000B50240E058E160E070E080E00E944808CC
:1022200084E0C3CF8091080480FDBFCE8091B102CD
:1022300080FFBECFC0900A05D0900B05E0900C0542
:10224000F0900D058091B2029091B302A091B4027A
:10225000B091B502C81AD90AEA0AFB0A8091B602FF
:10226000813001F18230C1F181119FCEFF92EF9256
:10227000DF92CF9289ED91E09F938F930E944C2E35
:102280000F900F900F900F900F900F9080910F0173
:102290009091100197FD04C082E08093B6025ACF5E
:1022A00081E0FBCFFF92EF92DF92CF9282EC91E040
:1022B0009F938F930E944C2ED0921001C0920F01D9
:1022C00082E08093B602809301010F900F900F90EF
:1022D0000F900F900F9069CEFF92EF92DF92CF9206
:1022E000809110018F9380910F018F9389EA91E083
:1022F0009F938F930E944C2E80910F01909110011B
:10230000AC0140585109052E000C660B770B2DB718
:102310003EB7285F3F4F0FB6F8943EBF0FBE2DBFAC
:10232000C416D506E606F70650F180589F4F092ED1
:10233000000CAA0BBB0B8C159D05AE05BF05F8F074
:102340001092040160E080E00E943D0E80910A0539
:1023500090910B05A0910C05B0910D058093B202F0
:102360009093B302A093B402B093B50240E05CEF47
:102370006FEF7FEF80E00E94480885E016CF8FEF77
:102380009FEF9093100180930F018DEF0ECF85305A
:1023900009F471C0863009F017CE8091080481FDE0
:1023A00013CE81E090E00E9417048091D10487FD54
:1023B0007BC0809111019091120197FF1FC080E0B6
:1023C00090E20E9417048091DF039091E0039093C4
:1023D0001201809311018091BB049091BC04A091E3
:1023E000BD04B091BE0494608093BB049093BC0480
:1023F000A093BD04B093BE040E94FC0E40E061E0D7
:1024000080911101909112010E94000E1092000122
:10241000DBCD0E947A0482600E9463041092030163
:1024200060E081E00E943D0E81E090E00E94170490
:102430008091D10487FD02C084E001C083E08093D5
:102440000001C2CD8091080481FDBECD40E05EEC6C
:102450006FEF7FEF81E00E944808EECF8091080483
:1024600081FDB2CD40E053E060E070E081E00E9489
:10247000480885E0E4CF8091080481FDA5CD8091D6
:10248000D10487FD02C08DEFDACF81E08093030194
:1024900061E00E943D0E40E05AEF6FEF7FEF81E078
:1024A0000E94480886E0CBCF8EEFC9CF8091080408
:1024B000837051F480910101181634F0809100016D
:1024C000181614F080E008950E94A10FEFCFCF926C
:1024D000DF92EF92FF92CF93DF9300D000D000D035
:1024E000CDB7DEB7CE0105969F938F9304979F9348
:1024F0008F9389E891E09F938F93809182058F93CA
:10250000809181058F930E94712E0FB6F894DEBFE3
:102510000FBECDBF019771F08DEF26960FB6F894E0
:10252000DEBF0FBECDBFDF91CF91FF90EF90DF9068
:10253000CF9008958D8187FDF0CF80918305843AF7
:1025400019F18F3A79F1823A09F049C0C980DA80ED
:10255000EB80FC800E947A0481600E946304809179
:102560000A0590910B05A0910C05B0910D05B701DE
:10257000A601481B590B6A0B7B0B80E00E944808A0
:1025800087FF0EC08EEFC9CF89819A81AB81BC8154
:1025900080930A0590930B05A0930C05B0930D054D
:1025A00080E0BBCF49815A816B817C818CEF413CBB
:1025B00034ED530731E0630771050CF0AECF809125
:1025C0000904826080930904709560955095419547
:1025D0005F4F6F4F7F4F80E00E944808E1CF8AEF46
:1025E0009CCFCF93DF9300D00F92CDB7DEB7CE0153
:1025F00001969F938F9302969F938F9382E891E029
:102600009F938F93809182058F93809181058F9303
:102610000E94712E0FB6F894DEBF0FBECDBF01979A
:1026200039F08DEF0F900F900F90DF91CF910895BB
:10263000898187FDF7CF80918305883A11F130F4C5
:10264000893981F08A39B9F08AEFECCF823C69F19F
:10265000833C99F1893AC1F76B816F3F01F5609333
:10266000030107C08B818093ED0380E290E00E941C
:10267000170480E0D7CF8B818093EE0380E092E057
:10268000F6CF6B816F3F19F460930401F2CF68308D
:10269000D0F46093040180E00E943D0EEACF6830E0
:1026A00090F46093030181E0F7CF6B81062E000C5C
:1026B000770B80E00E94650DB5CF6B81062E000C74
:1026C000770B81E0F7CF8CEFADCFCF93DF9300D0C6
:1026D000CDB7DEB79E012F5F3F4F3F932F937F9380
:1026E0006F9324EE30E03F932F939F938F930E943C
:1026F000712E0FB6F894DEBF0FBECDBF019731F437
:1027000089810F900F90DF91CF9108958DEFF9CFD0
:10271000CF93DF9300D0CDB7DEB7BE016F5F7F4FA1
:1027200080918105909182050E94651387FD20C0EC
:1027300089819A819C012F5F3F4F21303140E8F41D
:1027400090931201809311018091BB049091BC047D
:10275000A091BD04B091BE0494608093BB0490939B
:10276000BC04A093BD04B093BE040E94FC0E80E0A4
:102770000F900F90DF91CF9108958CEFF9CFCF9309
:10278000DF9300D0CDB7DEB7BE016F5F7F4F809182
:102790008105909182050E94651387FD20C0898183
:1027A0009A819C012F5F3F4F21343105E8F49093CB
:1027B0001401809313018091BB049091BC04A091FB
:1027C000BD04B091BE0492608093BB049093BC049E
:1027D000A093BD04B093BE040E94FC0E80E00F9055
:1027E0000F90DF91CF9108958CEFF9CF0F931F9346
:1027F000CF93DF9300D0CDB7DEB7BE016F5F7F4FC1
:1028000080918105909182050E94651387FD07C024
:1028100080918305833A51F0853A31F18AEF0F9028
:102820000F90DF91CF911F910F91089509811A8127
:102830000E947A0482600E946304A801110F660B53
:10284000770B80912F0590913005A0913105B091C3
:102850003205481B590B6A0B7B0B81E00E9448082C
:1028600087FF10C08EEFDBCF89819A81092E000C83
:10287000AA0BBB0B80932F0590933005A0933105D5
:10288000B093320580E0CBCFCF93DF9300D0CDB7AC
:10289000DEB79E012F5F3F4F3F932F937F936F9340
:1028A0002FED30E03F932F939F938F930E94712ED3
:1028B0000FB6F894DEBF0FBECDBF019731F489810A
:1028C0000F900F90DF91CF9108958DEFF9CFCF92B8
:1028D000DF92EF92FF921F93CF93DF9300D0CDB79B
:1028E000DEB71A8219828BEDE82E84E0F82E10E014
:1028F00090E3C92E95E7D92EBE016F5F7F4F80917F
:102900008105909182050E94441487FD30C0698141
:102910007A81113041F01230A1F1613F9AE07907DC
:1029200030F08CEF24C0653EECE07E07D0F7643FCA
:1029300091E07907B0F32091810530918205280F4D
:10294000311D87FD3A953093820520938105C6019C
:102950000E946A2DF70166838091D9040E94C10408
:102960001F5FF7E0EF0EF11C133031F680E00F909F
:102970000F90DF91CF911F91FF90EF90DF90CF905C
:1029800008956938F3E17F0790F2CBCFCF93DF93BF
:1029900000D000D0CDB7DEB7BE016F5F7F4F809112
:1029A0008105909182050E94441487FD26C02091E4
:1029B000810530918205A901480F511D87FD5A9567
:1029C000CA015093820540938105BE016D5F7F4F20
:1029D0000E94441487FD11C089819A819C01205175
:1029E00031092937334180F46B817C81613127E2E1
:1029F000720750F40E94270580E00F900F900F900F
:102A00000F90DF91CF9108958CEFF7CFCF93DF93A5
:102A100000D0CDB7DEB7BE016F5F7F4F80918105DB
:102A2000909182050E94441487FD0AC0809183051D
:102A30008C3BB9F150F48E38D9F08F3831F18AEFF0
:102A40000F900F90DF91CF9108958D3BA1F18E3BB8
:102A5000B1F789819A8190930E0480930D0480913F
:102A60000D0490910E04892B61F00E94A10FF7CF05
:102A700049815A8170E060E080E00E94480887FD4B
:102A800002C080E0DDCF8EEFDBCF49815A8170E05C
:102A900060E070956095509541955F4F6F4F7F4F07
:102AA000EBCF69817A81611584E0780760F480E07A
:102AB0000E94BC0DC5CF69817A81611584E07807D9
:102AC00010F481E0F5CF8CEFBBCFCF93DF9300D034
:102AD000CDB7DEB79E012F5F3F4F3F932F937F937C
:102AE0006F9328ED30E03F932F939F938F930E9435
:102AF000712E0FB6F894DEBF0FBECDBF019731F433
:102B000089810F900F90DF91CF9108958DEFF9CFCC
:102B10001F93CF93DF930F92CDB7DEB7BE016F5FE8
:102B20007F4F80918105909182050E94651587FDF8
:102B30001DC02091810530918205280F311D87FD30
:102B40003A95309382052093810519818CEF1230DC
:102B500068F480E090E20E941704412F61E08091C8
:102B6000DF039091E0030E94000E80E00F90DF9160
:102B7000CF911F9108951F93CF93DF930F92CDB7FD
:102B8000DEB7BE016F5F7F4F809181059091820516
:102B90000E94651587FD1DC0209181053091820539
:102BA000280F311D87FD3A953093820520938105CA
:102BB00019818CEF123068F480E090E10E941704D4
:102BC000412F60E08091DD039091DE030E94000EB2
:102BD00080E00F90DF91CF911F910895CF93DF9305
:102BE0000F92CDB7DEB7BE016F5F7F4F8091810539
:102BF000909182050E94651587FD12C02091810584
:102C000030918205280F311D87FD3A95309382055A
:102C1000209381058981823038F480937B0580E0A0
:102C20000F90DF91CF9108958CEFFACFCF93DF9380
:102C30000F92CDB7DEB7BE016F5F7F4F80918105E8
:102C4000909182050E94651587FD26C0209181051F
:102C500030918205280F311D87FD3A95309382050A
:102C60002093810589818130D9F4109273051092E7
:102C70007405109275051092760544E063E775E0DF
:102C800086E190E00E946D0E44E067E775E080E227
:102C900090E00E946D0E80E00F90DF91CF9108953B
:102CA000823059F7109277051092780510927905C5
:102CB00010927A05E2CF1F93CF93DF930F92CDB797
:102CC000DEB78091810590918205FC0110812EEB89
:102CD000210F253008F051C0019690938205809312
:102CE0008105BE016F5F7F4F0E94651587FD46C05D
:102CF00080918305823E69F1833EB9F0813E39F4CB
:102D00008981143471F02CF4133449F085B980E0D2
:102D100035C0153441F01634C9F781BBF8CF88B9F6
:102D2000F6CF8BB9F4CF8EB9F2CF8981143469F024
:102D300024F4133441F083B9EACF153441F016344A
:102D4000D1F78FB9E4CF86B9E2CF89B9E0CF8CB99A
:102D5000DECF8981143469F024F4133441F084B94E
:102D6000D6CF153441F01634D1F780BBD0CF87B918
:102D7000CECF8AB9CCCF8DB9CACF8CEF0F90DF916F
:102D8000CF911F91089560EC74E08091810590913E
:102D900082050E94651587FD28C02091810530912C
:102DA0008205A901480F511D87FD5A95CA0150930C
:102DB0008205409381056FEB74E00E94651587FDE5
:102DC00014C08091BB049091BC04A091BD04B0914B
:102DD000BE0490628093BB049093BC04A093BD0496
:102DE000B093BE040E94FC0E80E00895CF93DF9361
:102DF0000F92CDB7DEB7BE016F5F7F4F8091810527
:102E0000909182050E94651587FD0AC089818230F4
:102E100078F4882349F0EE9A81E08093B70280E04D
:102E20000F90DF91CF910895EE981092B702F7CFEF
:102E30008CEFF6CFDF92EF92FF920F931F93CF9319
:102E4000DF93CDB7DEB760970FB6F894DEBF0FBE45
:102E5000CDBFD0908305E0908105F0908205BE0142
:102E60006F5F7F4FC7010E94441487FD5DC08701DB
:102E7000080F111D87FD1A95F8019081992341F0E3
:102E8000BE016D5F7F4FC8010E94441487FD4CC096
:102E9000080F111D87FD1A95F8019081992341F0C3
:102EA000BE016B5F7F4FC8010E94441487FD3CC088
:102EB000080F111D87FD1A95F8019081992341F0A3
:102EC000BE01695F7F4FC8010E94441487FD2CC07A
:102ED000080F111D87FD1A95F8019081992341F083
:102EE000BE01675F7F4FC8010E94651587FD1CC04A
:102EF000080F111D87FD1A95F8019081992341F063
:102F0000BE01665F7F4FC8010E94651587FD0CC03A
:102F1000080F111D87FD1A95F8018081811112C0DB
:102F2000802F8E1987FF17C060960FB6F894DEBF0A
:102F30000FBECDBFDF91CF911F910F91FF90EF900A
:102F4000DF900895BE01655F7F4FC8010E94441461
:102F500087FFE6CFE9CF81E0F7EADF1280E0BE012C
:102F60006F5F7F4F0E94420987EAD816A9F08091CF
:102F7000BB049091BC04A091BD04B091BE048062DA
:102F80008093BB049093BC04A093BD04B093BE0493
:102F90000E94FC0E80E0C8CF8091BB049091BC04DD
:102FA000A091BD04B091BE048064EACFCF93DF93BB
:102FB00000D000D000D00F92CDB7DEB7BE01695F60
:102FC0007F4F80918105909182050E94651587FD54
:102FD0003DC0E0918105F0918205E80FF11D87FD6C
:102FE000FA95F0938205E093810519821A821B827B
:102FF0001C828081811113C089819A81AB81BC813F
:1030000080936F0590937005A0937105B09372053E
:103010008091D5049F81911126C08D7F25C0CE015E
:1030200005969F938F9304979F938F938FE891E0DA
:103030009F938F93FF93EF930E94712E0FB6F89496
:10304000DEBF0FBECDBF019751F08DEF27960FB6B3
:10305000F894DEBF0FBECDBFDF91CF9108958D8173
:1030600087FFCACFF3CF82600E94FD0480E0EECFDD
:103070001F93CF93DF930F92CDB7DEB7BE016F5F83
:103080007F4F80918105909182050E94651587FD93
:103090001AC0809183058A3809F476C068F58031BA
:1030A00009F467C0A8F48D3009F44EC08F3009F4DC
:1030B0004FC08C3009F0D3C08981843008F0E1C062
:1030C0000E94630480E00F90DF91CF911F910895DB
:1030D000823809F472C0833809F466C0813109F07E
:1030E000BEC09981943008F0CCC080916D05807F7E
:1030F000892B80936D05E6CF8D3A09F48CC0A0F43E
:10310000863909F448C08A3A09F468C0853909F05B
:10311000A6C08981803408F0B4C08093EF0380E1B9
:1031200090E00E941704CECF883B09F45EC0843C37
:1031300009F48FC0813B09F092C08981853108F084
:10314000A0C080930201BECF89810E94FD04BACF46
:103150008981843008F095C0909108049F7040E107
:10316000849F90011124922B909308040E944C0498
:10317000A9CF8981843008F084C0909108048C6FB5
:103180008923809308049ECF8981803108F079C01B
:103190000E94C10497CF8981803408F072C0809367
:1031A000F00380E091E0BDCF1981111103C080E0F0
:1031B0000E941A051093110485CF8981843008F08C
:1031C00060C080936B05882319F00E9421057ACF97
:1031D0008091D904877F8093D90474CF898182300C
:1031E00008F04FC0809387056DCF89818B3F08F031
:1031F00048C080936E05882321F08A3F39F4589A9D
:1032000001C0589884B58F7C84BD5CCF8A5F88BD2F
:1032100084B58062F9CF9981923098F5809116013A
:10322000992369F084608093160188E090E00E9401
:1032300017048091090481608093090443CF8B7F38
:103240008093160188E090E00E9417041092090410
:1032500039CF89818031A8F48093370433CF813B03
:1032600041F0893B59F0E0EBF2E0823421F08AEF43
:103270002ACFE2E0F1E08981808324CFE7E1F1E029
:10328000FACF8CEF20CFAF92BF92DF92EF92FF92F6
:103290000F931F93CF93DF93CDB7DEB760970FB631
:1032A000F894DEBF0FBECDBF8091C1048F3FC9F43B
:1032B00085E591E09F938F930E944C2E0F900F9085
:1032C00080E060960FB6F894DEBF0FBECDBFDF91F1
:1032D000CF911F910F91FF90EF90DF90BF90AF9033
:1032E00008958E010F5F1F4F80E1F80111928A95BA
:1032F000E9F744E050E064EC74E0C8010E94122F4A
:103300007E01F6E0EF0EF11C43E050E068EC74E063
:10331000C7010E94122FD090CB04DA865E018BE0A9
:10332000A80EB11C45E050E06CEC74E0C5010E94B1
:10333000122FBF92AF928D2D0D2C000C990B9F93E5
:10334000DF92FF92EF921F930F9382E491E09F939D
:103350008F930E944C2E0FB6F894DEBF0FBECDBFE8
:10336000AFCFCF93DF93CDB7DEB7AE014B5F5F4FEB
:10337000FA0161917191AF0180917D0590917E0577
:103380000E948A2EDF91CF9108951F93CF93DF93F0
:10339000182FC82FD0E01F928F938FE991E09F9351
:1033A0008F930E94B1198FEF80938405FE01EB5635
:1033B000FE4FE4918E2F90E0982F88270F900F906A
:1033C0000F900F901530A0F08064F894E093BA024B
:1033D0008093BB021092BE021092C1021092BF02F3
:1033E00088E08093C2027894DF91CF911F91089575
:1033F0008068EBCFAF92BF92CF92DF92EF92FF92B5
:103400000F931F93CF93DF9300D000D0CDB7DEB7DB
:10341000F89419821A821B821C82AE014F5F5F4FA3
:1034200060E080E00E94A30919810A81FB80EC80A2
:1034300080E00E942E0AEF92FF920F931F931F923B
:103440008F9301EE13E0F80183818F9382818F9334
:1034500081818F9380818F9388EBE82E82E0F82E14
:10346000F70180811F928F938DE091E09F938F935E
:103470000E94B11919821A821B821C82AE014F5F11
:103480005F4F60E081E00E94A309D980CA80BB80C1
:10349000AC8081E00E942E0AAF92BF92CF92DF9261
:1034A0001F928F93F80187818F9386818F938581F7
:1034B0008F9384818F93F70181811F928F9389EE7F
:1034C00090E09F938F930E94B11978940FB6F8946F
:1034D000DEBF0FBECDBF80E00F900F900F900F901A
:1034E000DF91CF911F910F91FF90EF90DF90CF90E0
:1034F000BF90AF900895CF93DF93CDB7DEB7AE0105
:103500004B5F5F4FFA0161917191AF018091850529
:10351000909186050E948A2EDF91CF9108950F9396
:103520001F93CF93DF938091C402E091C503E81B02
:10353000C82F8A3008F0CAE08C1B8093C402CE0FDB
:103540000AE711E0EC1306C080E0DF91CF911F91F4
:103550000F910895D1E0DE0FF0E0EB53FD4F808135
:103560001F928F931F930F930E947B1A0F900F90BF
:103570000F900F90ED2FE6CFE7EFF4E086898F9361
:1035800085898F9384898F9383898F9385E791E0D1
:103590009F938F930E947B1A0F900F900F900F9024
:1035A0000F900F9080E0089585E391E09F938F93B3
:1035B0001F9284E08F931F9281E08F931F928F93CD
:1035C00086E391E09F938F930E947B1A8DB79EB7FD
:1035D0000A960FB6F8949EBF0FBE8DBF80E0089587
:1035E0000E9457050097A1F0FC018081282F082E2A
:1035F000000C330B3F938F9381E391E09F938F9364
:103600000E947B1A0F900F900F900F9080E008950A
:1036100080E0ECCF9F938F9384ED90E09F938F9306
:103620000E947B1A0F900F900F900F9097FD80E0F3
:10363000089580912F05909130050E940A1B80E02B
:1036400008950F931F93CF93DF930E945705009720
:1036500059F0EC018C01085F1F4F899199910E94EC
:103660000A1BC017D107C9F780E0DF91CF911F91E6
:103670000F9108950E945705009739F0FC01808151
:1036800091810E940A1B80E0089590E080E0F9CFCC
:103690009F938F937F936F938FEC90E09F938F9383
:1036A0000E947B1A0F900F900F900F900F900F9029
:1036B00097FD80E00895CF93DF93CEE6D5E06D814E
:1036C0007E818F8198850E94481B69857A858B85CC
:1036D0009C850E94481B80E0DF91CF9108959F93C5
:1036E0008F938BEC90E09F938F930E947B1A0F90A7
:1036F0000F900F900F9097FD80E008958FEF93E06B
:103700000E94472F8150990B2AE0AC01249FC001F1
:10371000259F900D11240E946F1B80E00895109248
:10372000AF021092AE028091AE029091AF02209152
:1037300008042370822B9093AF028093AE02809195
:1037400084058F3F21F085E090E00E9417042091CE
:10375000D20427FD09C08091AE029091AF0280642F
:103760009093AF028093AE0225FD09C08091AE0216
:103770009091AF0280689093AF028093AE028091E7
:10378000D10487FD09C08091AE029091AF02916093
:103790009093AF028093AE0280917C05882349F01C
:1037A0008091AE029091AF0290629093AF028093AD
:1037B000AE0280918405823001F581E080936B0533
:1037C0000E94210583E08093840585E080931004A6
:1037D00080913504882349F08091AE029091AF0228
:1037E00090649093AF028093AE028091AE0290916C
:1037F000AF020E946F1B80E00895809184058F3F87
:1038000021F78091AE029091AF0290689093AF0241
:103810008093AE02DACFEF92FF920F931F93CF9374
:10382000DF938CE1E82E84E0F82ED0E0C0E000E3E6
:1038300015E7F701628173816115710571F080915F
:10384000D90490E00C2E02C0959587950A94E2F772
:1038500080FF15C0C8010E946A2DCB010E946F1B1A
:10386000219628E0E20EF11CC330D10511F780E06B
:10387000DF91CF911F910F91FF90EF90089570E02D
:1038800060E0EBCF0F931F93CF93DF930E94570518
:10389000009759F0EC018C01085F1F4F89919991B5
:1038A0000E946F1BC017D107C9F780E0DF91CF914D
:1038B0001F910F9108950E945705009739F0FC0160
:1038C000808191810E946F1B80E008958091830523
:1038D0008C3B29F08D3B61F090E080E0F3CF80E0FD
:1038E00090E10E9417048091DD039091DE03EACFFE
:1038F00080E090E20E9417048091DF039091E00342
:10390000E1CF1F928F9387EC90E09F938F930E945B
:103910007B1A0F900F900F900F9097FD80E0089505
:10392000E0918105F091820590812EEB290F2530E1
:1039300008F044C020918305223E69F1233EC1F086
:10394000213E31F4943481F03CF4933459F085B144
:103950000E94811C80E00895953441F09634B9F7B7
:1039600081B3F6CF88B1F4CF8BB1F2CF8EB1F0CF67
:10397000943469F024F4933441F083B1E9CF953461
:1039800041F09634D1F78FB1E3CF86B1E1CF89B161
:10399000DFCF8CB1DDCF943469F024F4933441F05F
:1039A00084B1D6CF953441F09634D1F780B3D0CFDF
:1039B00087B1CECF8AB1CCCF8DB1CACF8CEF08956D
:1039C0008091C0040E94811C8091BF040E94811CD0
:1039D00080E008958091D504869581700E94811CB5
:1039E00060916F05709170058091710590917205DD
:1039F000611571058105910511F00E94481B80E059
:103A000008950E945705009731F0FC0180810E94C3
:103A1000811C80E00895809183058539D9F190F467
:103A20008F3071F130F4813019F18C3031F180E058
:103A3000EECF813161F138F18A38C9F78091D9042C
:103A40008770E5CF8D3A81F140F4893939F18A39AF
:103A500041F1863961F781E01EC0883C49F1893C1B
:103A600059F18E3A21F78CB182FB882780F9CFCFAC
:103A700080917C0510927C05CACF0E947A04C7CF42
:103A80000E945B04C4CF809108048F70C0CF8091E6
:103A90006D05FBCF80E00E94C20AB9CF8091D103AF
:103AA000B6CF8091DA03B3CF809109048170AFCF94
:103AB00080E00E94BA0BABCF81E0FBCFFF920F9367
:103AC0001F93CF93DF938C01FC01808191810E9431
:103AD0006F1BC82FF801828193810E946F1BC80F52
:103AE000F801848195810E946F1BC80FF8018681BF
:103AF00097810E946F1BC80FF80180850E94811C6E
:103B0000C80FF8018185282F082E000C330B3F9336
:103B10008F9381E391E09F938F930E947B1AF82EFD
:103B2000D92FF801828593850E946F1B2F2D3D2F81
:103B30000F900F900F900F9037FD20E08C0F820FA9
:103B4000DF91CF911F910F91FF9008951F93CF9315
:103B5000DF93CDB7DEB761970FB6F894DEBF0FBE27
:103B6000CDBF10918305BE016F5E7F4F80918105AF
:103B7000909182050E94651587FD1AC08989883059
:103B800008F520E032E0173A11F020E031E040E1A2
:103B9000849FC001112440E1BE016F5F7F4F820FFF
:103BA000931F0E94220ECE0101960E945E1D80E0AE
:103BB00061960FB6F894DEBF0FBECDBFDF91CF91F7
:103BC0001F9108958CEFF4CFCF93DF93CDB7DEB77D
:103BD00060970FB6F894DEBF0FBECDBF81E0909125
:103BE0008305973A09F080E0BE016F5F7F4F0E9426
:103BF000D40ACE0101960E945E1D80E060960FB649
:103C0000F894DEBF0FBECDBFDF91CF910895CDB741
:103C1000DEB760970FB6F894DEBF0FBECDBF84B796
:103C200080937C0514BE80917C0583FF11C0809138
:103C3000000990910109853A9A4551F480917C05DB
:103C4000877F80937C0580917C05806880937C05CC
:103C50008AE595EA90930109809300099FB7F8944B
:103C6000A89584B7877F84BF18E1109360001092F5
:103C700060009FBF8FE00FB6F894A8951093600086
:103C80000FBE809360001092D7001092D80095E18B
:103C90009093C5008093C60080E8809361001092E5
:103CA0006100789481E00E941A058091C8008260CA
:103CB0008093C80080E18093CC001093C90080916C
:103CC000C90080688093C9008CE780933B04109200
:103CD0003C0410923D048AE992E02CEA3BE03093E8
:103CE000A3022093A20224E93BE03093A502209393
:103CF000A40223E020939D021092A7021092A60234
:103D00005A9A9093B7058093B6059093B90580931E
:103D1000B8059093890580938805909386058093D4
:103D2000850590937E0580937D0580917C051F928B
:103D30008F938DEE93E09F938F930E944C2E8091F2
:103D40007100817F80937100109290008AE08093CF
:103D50009100109299001092980010929B0010927E
:103D60009A0010929D0010929C0010929500109263
:103D700094003E9A46980F900F900F900F9080916C
:103D8000C1048F3FC1F48FEF9FEF90931401809394
:103D9000130190931201809311018FEF9FEFDC01CB
:103DA0008093BB049093BC04A093BD04B093BE0465
:103DB0000E94FC0EA5C044E063E775E086E190E058
:103DC0000E94220E8091730590917405A091750553
:103DD000B09176058F3F9F4FAF4FBF4F79F4109250
:103DE000730510927405109275051092760544E0E3
:103DF00063E775E086E190E00E946D0E44E067E7BE
:103E000075E080E290E00E94220E8091770590910B
:103E10007805A0917905B0917A058F3F9F4FAF4FFC
:103E2000BF4F79F4109277051092780510927905BA
:103E300010927A0544E067E775E080E290E00E9426
:103E40006D0E00E011E040E1BE016F5F7F4FC801E1
:103E50000E94220E89819A8181329E4408F093CF7C
:103E60008B819C8181329E4408F08DCF8D819E8113
:103E70000C978D34924008F086CF8F8198850C97EF
:103E80008D34924008F07FCF8985803408F07BCF55
:103E90008B859C858938934108F075CF005F1F4F53
:103EA000003841E0140779F680E093E00E944F2F3C
:103EB000909314018093130180E193E00E944F2FAF
:103EC000909312018093110182E093E00E944F2FA2
:103ED0009093100180930F0182E193E00E944F2F95
:103EE00090930E0180930D0184E193E00E94472F8F
:103EF0008093C00485E193E00E94472F8093BF0424
:103F00002CEE33E6F901459155916591749180E06D
:103F100090E0DC01F0E0E0E02E173F0709F09DC0E3
:103F2000481759076A077B0709F0A6C040E050E030
:103F3000BA01E0E0F0E7CF010196E4914E0F511D88
:103F4000611D711DFC01803FAFE79A07A1F746365E
:103F50005D496740710509F091C0A1ECB4E09D0195
:103F6000FC014491F90141939F0101968115F0E80C
:103F70009F07B1F721ED34E08D918F3F09F077C0B5
:103F80008093C10489E0F0E0E0E080935700E49181
:103F9000EE3509F075C0E3E0F0E080935700E4915E
:103FA000E83D09F06DC0E2E0F0E080935700E49155
:103FB000E83C09F065C0E1E0F0E0809357008491AF
:103FC0008F738F3219F085E00E94C51984B1817F0B
:103FD00084B984B1876084B985B1817F85B9289A15
:103FE00080E58CBD1DBC8AB182618AB98BB18261CA
:103FF0008BB98FE39CE90197F1F700C00000249A88
:104000002C9A2C982C9A60E880E00E94830660EE3F
:1040100081E00E9483066AEC82E10E94830660EEE2
:1040200083E10E94830680E00E947106803851F18E
:104030009FEF80917C058E7FB1F58091D20487FF40
:1040400032C085EE93E09F938F930E94B11980E078
:104050000E941A050F900F90FFCF8F010F5F1F4F27
:10406000E4918E0F911DA11DB11DF80155CF2A17A6
:104070003B0709F081CF86CF81E0A6CF82E0A4CFB5
:1040800084E0A2CF81E00E947106803E89F682E141
:104090000E9471068093D10483E10E94710680938F
:1040A000D20490E0C6CF9F3F19F486E00E94C51964
:1040B0001092D4041092D30480917A008760809388
:1040C0007A0080917C00806480937C0080917A00EB
:1040D000806880937A0013E010937E000E946F0B3B
:1040E000279A209A559A509A2F9A289A5D9A589A08
:1040F00081E08093D50480936B058AEF80936E05F1
:1041000084E190E09093F1048093F00488E0809340
:10411000D90424E12093E1048CE390E09093DC0443
:104120008093DB042093E8049093E3048093E204FB
:104130002093EF049093EA048093E904259A269A49
:104140002D982E9856985798519A549A599A5C9A45
:1041500080E00E94070B082F81E00E94070B87FD7B
:1041600002C007FF96C087E00E94C51980B38F7810
:1041700080BB81B3806781BB879A80911601877E5F
:104180008093160188E090E00E942C04109266054E
:1041900062E370E088EB91E00E94270510926705CA
:1041A000109268051092690510926A0583E084BD3B
:1041B00085BD9DE797BD96E096BD80936E0080918A
:1041C0006A008F7C80936A0080916A00806280938D
:1041D0006A0080918405811108C00E94110D882316
:1041E00009F400C188E00E94C519809184058111FD
:1041F00005C00E94960C81E00E94960C8091840577
:1042000081110CC012E010936B050E94210588E01B
:10421000809317011093840510926C058BEF93E047
:104220009F938F930E944C2E0F900F908DEDE82E50
:1042300086E0F82EA89580917F0590918005892BC6
:1042400009F0D6C08DB79EB79093800580937F0507
:104250008091B4059091B5058A970CF4EFC08FEF6B
:104260002091B4053091B5052A3231050CF4EFC028
:104270003F932F93FF92EF920E947B1A1092B50505
:104280001092B4050F900F900F900F900E94A10F05
:10429000D1CF64E080E00E94460A62E081E00E94A3
:1042A000460A68E180E00E94830A66E080E00E949E
:1042B000710A68E181E00E94830A68E081E00E945F
:1042C000710A9FEFA0E7B2E09150A040B040E1F743
:1042D00000C000000BE1E1E0F5E0DF01202F1D92BE
:1042E0002A95E9F788E58093F70480E293E09093BC
:1042F000F9048093F80490E8E92E9CE0F92EF092FE
:10430000FB04E092FA0480EC94E49093FD04809323
:10431000FC048AEF90E09093FF048093FE04909356
:1043200001058093000580E00E94BF08E6E2F5E009
:10433000DF011D920A95E9F789E580931C05F0924B
:104340001E05E0921D0580EC93E09093200580937C
:104350001F0580E095E090932205809321058CE075
:1043600090E09093240580932305909326058093F5
:10437000250581E00E94BF08809181008F7E809397
:10438000810080918100886080938100809180000D
:104390008D7F80938000809180008E7F809380004D
:1043A000809180008F7380938000809180008F7C4B
:1043B0008093800080918100887F8260809381005B
:1043C00080E092E0909389008093880010928500AD
:1043D0001092840080916F00826080936F00109330
:1043E0006D05C4CE81E00E94110D8111FBCEFDCE82
:1043F0002DB73EB780917F0590918005281739072A
:1044000009F426CF0E94820B8D3011F08A3009F416
:1044100080E02091B4053091B505F901E657FA4FD7
:104420008083882309F41CCF2F5F3F4F3093B5055D
:104430002093B4052A3231050CF012CF8091880503
:10444000909189050E94E22D87FFDECF09CF1216D9
:1044500013060CF01BCF811119CF8091870588239B
:1044600081F060918505709186058AE895E00E944B
:10447000212F60918505709186058AE090E00E9469
:104480001C2E10918A05113211F01F33A1F4E09116
:104490008B05EE2309F44DC080918E058F7D71F45C
:1044A0002CE043E062E475E08BE895E00E944C0666
:1044B000E3E08F3F91F423E030E034C080918F053A
:1044C0008F7DC9F720E444E062E074E08BE895E07A
:1044D0000E944C06E4E08F3F71F30E2E000CFF0BA0
:1044E000E557FA4F9081911126C0909184059F3F26
:1044F00019F4823008F03FC0809383054DE062E7F5
:1045000075E0113229F043E369E975E01F3399F64C
:104510000E943806E82FFF27E1950CF4F0959F01E3
:10452000882361F184ED96E03F932F939F938F93BF
:10453000A3CE80E0D2CF903209F0BDCF9091840518
:104540009F3FC9F0803E20F090918405943099F40B
:10455000809383053196F0938205E093810541E3D2
:1045600062E376E01132A1F21F3309F0A4CF45E0F7
:1045700065EC76E0CDCF25E030E0D4CF89ED96E054
:10458000D3CF1F920F920FB60F9211245F926F92AA
:104590007F928F929F92AF92BF92CF92DF92EF92D3
:1045A000FF920F931F932F933F934F935F936F93BC
:1045B0007F938F939F93AF93BF93EF93FF93CF938B
:1045C000DF9300D000D0CDB7DEB7809184058F3F58
:1045D00009F093C08091C2028823E9F08091C10262
:1045E0009091C0028823D9F181508093C10291112A
:1045F00012C08FE694E0909399008093980080E435
:10460000809390002F9A8091D50481608093D50487
:1046100081E08093C0020F900F900F900F90DF9178
:10462000CF91FF91EF91BF91AF919F918F917F912A
:104630006F915F914F913F912F911F910F91FF903B
:10464000EF90DF90CF90BF90AF909F908F907F9032
:104650006F905F900F900FBE0F901F901895992349
:1046600051F0109290002F988091D5048E7F809306
:10467000D5041092C0028091BF02882321F081509E
:104680008093BF02C8CF4091BE02E42FE695E69525
:10469000F0E0E654FD4F808190E0437023E030E08D
:1046A000241B3109220F331F02C0959587952A9547
:1046B000E2F783708230D1F08330E1F0813021F075
:1046C0001092C10280E303C080E38093C102809313
:1046D000BF028091BE028F5F8093BE029091C202A2
:1046E000891708F498CF1092BE0295CF80E9809385
:1046F000C102E8CF1092BE02ECCF80911A049091D3
:104700001B049C012F5F3F4F30931B0420931A041E
:10471000883E934008F42CC110921B0410921A0496
:10472000809112049091130485389340B4F08091E5
:1047300084058F3F91F08FEF809315016FEF82E139
:104740000E9483061092160160E083E10E948306B6
:104750008F9889E00E94C5195ECF789480911104EA
:10476000882339F0815080931104811102C00E9486
:104770001A05809184058330A9F480911004882360
:1047800089F08091100481508093100481110AC037
:1047900012E010936B050E94210588E080931701B9
:1047A000109384058091D20487FD3FC080910F044F
:1047B0008F5F80930F04863048F064E670E08CEDE4
:1047C00090E00E94270580E00E941A0584E090E0B6
:1047D0000E942C048091D50481FF2AC0809173052A
:1047E00090917405A0917505B09176050196A11D73
:1047F000B11D8093730590937405A0937505B093D4
:1048000076058091770590917805A0917905B09112
:104810007A050196A11DB11D8093770590937805C7
:10482000A0937905B0937A0507C010920F04CECFFC
:1048300080917B058111E5CF80913404811194C072
:10484000C090D904D12C9090350440913604EBED02
:10485000F4E02CE134E0F12CE12CAA24A394B12C57
:104860005E2CC6010E2C02C0959587950A94E2F73E
:1048700080FF52C0D9016D917C9111970081118107
:1048800086806115710509F467C0892D90E08095D7
:1048900090950E2C02C0959587950A94E2F780FFBB
:1048A0005BC014968D919C91880F991F0E946A2D70
:1048B000D90112968D919C911397680F791F769567
:1048C000679513967C936E931297882D90E06817E6
:1048D0007907D0F5861B970B880F991F800F911FC2
:1048E00091838083D90111961C921E9215961C9279
:1048F0001E921497882D90E0608171816817790766
:1049000058F4411106C0B50101C0660F5A94EAF788
:10491000962A918380834150BFEFEB1AFB0A3796AA
:10492000285F3F4F63E0E616F10409F099CF9092BB
:1049300035044093360480910009909101098A352D
:10494000954AC1F00E94820B8617970758F6800F90
:10495000911F861B970BC4CFC80196958795081B9E
:10496000190B11830083C6CF815080933404E3CFA9
:104970007894E1CF80916F0590917005A0917105B9
:10498000B09172050097A105B105E9F00197A10961
:10499000B10980936F0590937005A0937105B09352
:1049A0007205892B8A2B8B2B71F48091D5048D7F16
:1049B0008093D504809116018C7F8093160188E046
:1049C00090E00E942C0480910D0490910E04892B9C
:1049D00049F080910D0490910E04019790930E047C
:1049E00080930D0480910B0490910C04009749F082
:1049F000019790930C0480930B04892B11F410926F
:104A000090008091C80381110DC08091390490916C
:104A10003A048168986090933A04809339048BE05B
:104A20008093C803F0900804E090C8038F2D837032
:104A300009F404C1B2E0EB1290C00E947A0480FF36
:104A400019C09091C7034091E1035091E203609136
:104A5000E3037091E403442755276627707E4115D0
:104A600051056105704609F06EC0943118F49F5FDE
:104A70009093C70381FF19C08091C6034091E5035D
:104A80005091E6036091E7037091E80344275527AE
:104A90006627707E411551056105704609F058C0C2
:104AA000843118F48F5F8093C603EA94E092C803C0
:104AB0009FB192959F708091D80440913804492706
:104AC0004823909338049091DA042091D6043091D1
:104AD000D704ECE1F4E0B0E0A0E050E001E010E049
:104AE000692F70E00A2E02C0759567950A94E2F767
:104AF00060FFA7C0B8010A2E01C0660F0A94EAF74A
:104B0000609596231782168211963896A330B105C8
:104B100039F74091F2045091F3044217530709F01A
:104B2000CCC040916B056091C9037091CA034230BB
:104B300009F4A6C0433009F469C1413009F0AFC09F
:104B400040910201AAC0992309F494CF915090CFCB
:104B5000882309F4AACF8150A6CF21E0E212A5CF85
:104B60008091E1039091E2039C0133703A832983A1
:104B70000091E5031091E603980133703C832B8389
:104B8000F1FA662460F8712C660C771CFE01E60DC4
:104B9000F71D218132813695279536952795E0912D
:104BA000C50331E03E0F3093C503F0E0EB53FD4FFA
:104BB00020832091C4022F3F19F02F5F2093C4025D
:104BC0002F2D21712130B1F430910401311112C027
:104BD000807E93704091130550911405842B952B82
:104BE000892B41F42093C30264EF71E088EE93E0D7
:104BF0000E9427058F2D8272823209F056CF809154
:104C00000301811113C0007E1370809138059091CB
:104C10003905082B192B012B49F482E08093C3023C
:104C200064EF71E088EE93E00E9427058091D10443
:104C300087FD3BCF82E08093C30237CF1092C3023F
:104C400034CFBA010A2E02C0759567950A94E2F72F
:104C500060FF5ACFE680F780E114F10471F06481BF
:104C60007581620F731F6E197F097583648360817C
:104C700071816F5F7F4F718360833783268344CF59
:104C8000FB01A4E0F695E795AA95E1F7613441E0D0
:104C9000740708F4B8C048E24E1B4093F6044091F4
:104CA0001701460F572F511D4138B2E05B0708F03E
:104CB000B5C05093CA034093C9036091D90470E012
:104CC000EBEDF4E050E040E0A1E0B0E0F42E8B0129
:104CD000042E02C0159507950A94E2F700FFA3C0C1
:104CE0000281138102171307A1F48D01042E01C064
:104CF000000F0A94EAF7802B902B00811181020F9C
:104D0000131F138302830681020F132F111D1583B6
:104D10000483048115810217130739F48D0101C042
:104D2000000FFA94EAF7009580234F5F5F4F3796A4
:104D30004430510559F68093D8049093DA0482FFE9
:104D400079C08F988091D80483FF76C02F9A1091F4
:104D500015011F78E0E18E9FC0011124182B1093DC
:104D6000150182E090E00E942C048091D60490917D
:104D7000D70401969093D7048093D6048091390488
:104D800090913A04892B39F18091390490913A0439
:104D900081FF0DC0612F82E10E948306809139045A
:104DA00090913A048D7F90933A04809339048091D6
:104DB000390490913A0483FF41C06091160183E168
:104DC0000E9483068091390490913A04877F9093E2
:104DD0003A048093390480910A04882309F44AC173
:104DE000815080930A0480910904833009F013CC28
:104DF000629B11CC81E080930904809108048E7F2E
:104E00008093080408CCE093F60449CF6134A1E014
:104E10007A0708F095CE1092F60441CF1092CA039B
:104E20001092C9034ACF8D01042E01C0000F0A94CD
:104E3000EAF779CF8F9A86CF2F9889CF809139045E
:104E400090913A0480FF0BC082E10E94710680932A
:104E5000D1048091390490913A048E7FB8CF80912B
:104E6000390490913A0482FF0BC083E10E947106DD
:104E70008093D2048091390490913A048B7FA7CF1C
:104E80008091390490913A0484FF0BC06091EF0344
:104E900080E00E94830A8091390490913A048F7EC9
:104EA00096CF8091390490913A0485FF0BC06091B0
:104EB000ED0380E00E94710A8091390490913A04D8
:104EC0008F7D85CF8091390490913A0486FF14C07C
:104ED0002091E9033091EA033093D3032093D20366
:104EE00050E040E064E980E00E94020A80913904C9
:104EF00090913A048F7B6BCF8091390490913A0462
:104F000087FF1DC019821A821B821C82AE014F5F6F
:104F10005F4F6FE680E00E94A30989819A81AB818F
:104F2000BC818093E1039093E203A093E303B093E9
:104F3000E4038091390490913A048F7748CF8091AF
:104F4000390490913A0490FF0BC06091F00381E026
:104F50000E94830A8091390490913A049E7F37CF52
:104F60008091390490913A0491FF0BC06091EE0357
:104F700081E00E94710A8091390490913A049D7FEA
:104F800026CF8091390490913A0492FF14C0209169
:104F9000EB033091EC033093DC032093DB0350E010
:104FA00040E064E981E00E94020A80913904909116
:104FB0003A049B7F0CCF8091390490913A0493FF7F
:104FC0001DC019821A821B821C82AE014F5F5F4F87
:104FD0006FE681E00E94A30989819A81AB81BC813F
:104FE0008093E5039093E603A093E703B093E8036F
:104FF0008091390490913A04977FE9CE80913904E9
:1050000090913A0494FF18C019821A821B821C8264
:10501000AE014F5F5F4F6AE680E00E94A30989817D
:105020009A8193709093DE038093DD03809139041D
:1050300090913A049F7ECBCE8091390490913A04AE
:1050400095FFC9CE19821A821B821C82AE014F5F66
:105050005F4F6AE681E00E94A30989819A8193707B
:105060009093E0038093DF038091390490913A0498
:105070009F7DADCE84E180930A048091070487FF71
:1050800081C08F70E82FF0E021E030E0082E02C0F0
:10509000220F331F0A94E2F74091D3045091D404B5
:1050A00024233523232B71F440917800509179000B
:1050B000EE0FFF1FED5FFB4F20813181240F351F65
:1050C0003183208391E0882309F441C08091020458
:1050D0008F5F809302048430C8F180916605282F89
:1050E00030E0220F331FF901E650FC4F40910304DA
:1050F00050910404518340832E503C4F409105044D
:1051000050910604D9014D935C9321E130E0082EC3
:1051100001C0220F0A94EAF79091F103922B909329
:10512000F1038F5F182F137080911601877EB8E00E
:105130001B9F90011124822B8093160188E090E040
:105140000E942C04109366050E946F0B90E080E093
:10515000492F21E030E0B90163707727672B19F000
:10516000442331F040E0220F331F8F5F803199F7E5
:1051700020917C008770287F822B80937C00909305
:10518000070431CE80917A00806480937A00809108
:10519000070480688093070426CE1F920F920FB6F3
:1051A0000F921124109267051092680510926905FC
:1051B00010926A05EE98789480E00E94630480E083
:1051C0000E94C10480E00E94FD0483EF91E090936F
:1051D00099008093980080E48093900080ED97E0A0
:1051E00090930C0480930B0484E492E09F938F933C
:1051F0000E94B1190F900F90C12CD12C7601CFE3F2
:10520000D2E0FF92EF92DF92CF92DF93CF930E9492
:10521000B1196091B7028FEF860F0F900F900F902A
:105220000F900F900F908E3F48F48FEF93E00E9405
:105230006D2F8091B7028F5F8093B7028AE0C80E0E
:10524000D11CE11CF11C8091670590916805A0912B
:105250006905B0916A058C159D05AE05BF0598F3EB
:10526000D0CF1F920F920FB60F9211242F933F931E
:105270004F935F936F937F938F939F93AF93BF935E
:10528000CF93EF93FF93109285001092840081E0FA
:1052900090E0409108055091090520912D0530912D
:1052A0002E054217530710F090E080E025E2289F7A
:1052B000F001299FF00D1124E950FB4F218932891B
:1052C0003093AD022093AC022115310509F48FC053
:1052D00089B182958695869583709091C302892BBA
:1052E00090916D05892390E09093AB028093AA0280
:1052F000203A86E3380708F44BC056E036952795E8
:105300005A95E1F7F901E85EFE4F26A130E03093AF
:10531000A9022093A80280910804C82FC17080FFC1
:1053200005C061E080E00E949806C82F80910804C3
:1053300081FF05C062E081E00E949806C82B8C2F97
:105340000E9439048091A8029091A902909389004B
:1053500080938800209184003091850028173907B8
:1053600028F00A979093850080938400FF91EF9135
:10537000CF91BF91AF919F918F917F916F915F91ED
:105380004F913F912F910F900FBE0F901F90189546
:10539000203A86E2380750F045E0369527954A9541
:1053A000E1F7F901EC59FF4F2081B0CF203A8EE1AF
:1053B000380748F094E0369527959A95E1F7F9017A
:1053C000E05DF040F1CF2032310570F0B901769503
:1053D000679590E080E060587B47814E9F4F50E09A
:1053E00040E00E94922D93CF30E020E090CF80EDFE
:1053F00097E09093A9028093A802A4CF1F921FB6B2
:105400001F9211242F938F939F93EF93FF932091DB
:10541000CE0080913C0490913D04E82FF0E0E15CE7
:10542000FB4F20838F5F20913B04821708F080E0C0
:10543000981319C0F894ECEAF0E08091C80085FF59
:10544000FCCF84918093CE008091C80086FFFCCF72
:10545000319680E0E73CF80781F7789410923C049D
:1054600010923D0402C080933C04FF91EF919F9104
:105470008F912F911F901FBE1F9018951F921FB6DE
:105480001F9211248F939F93AF93BF9386B58A5F2A
:1054900086BD78948091670590916805A091690513
:1054A000B0916A050196A11DB11D80936705909387
:1054B0006805A0936905B0936A05BF91AF919F916C
:1054C0008F911F901FBE1F901895ABE0B0E0EBE6E8
:1054D000FAE20C94372D5C016B013A01FC01178252
:1054E0001682838181FFF5C0CE0101964C01F50142
:1054F000F380F601F3FC1591F3FE11916F01112376
:1055000009F437C0153239F4F3FC1591F3FE11910B
:105510006F011532B9F5B501812F90E00E941C2E64
:10552000E6CF112331F1612F70E08DEF96E00E94FC
:10553000D72D892BA1F4133219F11C3679F0612F84
:1055400070E086EF96E00E94D72D892BE9F0F4E019
:105550006F0E711CB5018FE390E0E0CF0068F6019B
:10556000F3FC1591F3FE11916F0107FFDACF1111D2
:10557000E6CFF501868197812B96EEE00C94532DB2
:1055800000E1EDCF00E0F1CF133609F455C0133739
:1055900009F459C0133509F455C0143619F01936F9
:1055A00009F06BC0F30107FF60C0619171918191B7
:1055B00091913F010F7E97FF08C09095809570955F
:1055C00061957F4F8F4F9F4F00642AE030E0A40128
:1055D0000E94B12EE82EE81806FF05C0B5018DE245
:1055E00090E00E941C2E04FF15C0FE01EE0DF11D7F
:1055F0008081803379F0B50180E390E00E941C2E19
:1056000002FF08C0802F807290E0B501885A9F4F3A
:105610000E941C2EEA94F12CFFEFEF1AFF0AE80C0F
:10562000F91CF70182917F01B50190E00E941C2EC8
:10563000E814F904B1F75BCFB501F30181919191C1
:105640003F016CCF0160F301E190F1903F01F70160
:1056500000FD859100FF81917F01882309F447CFE8
:10566000B50190E00E941C2EF2CF619171913F0133
:10567000072E000C880B990B9DCF1037F1F040F4EA
:105680001835E9F01F3609F074CF28E030E00CC07F
:10569000153739F0183709F06CCF046220E130E09B
:1056A00003C00F7E2AE030E0F30107FF0CC06191D8
:1056B0007191819191913F018ACF0061EECF046099
:1056C00020E132E0F1CF619171913F0190E080E003
:1056D0007ECF8FEF9FEF50CF20FD09C0FC0123FD4F
:1056E00005C022FF02C07383628351834083089503
:1056F00033E044FD10C034E046FD0DC0DB01FC0189
:10570000AA0FBB1FEE1FFF1F1094D1F76A0F7B1F5C
:105710008E1F9F1F31E0660F771F881F991F315022
:10572000D1F7620F711D811D911D08950F931F9375
:10573000CF93DF938C01C8010E94E22DEC0197FD0D
:1057400008C00E94CE2D892BB1F7B801CE010E946E
:10575000992ECE01DF91CF911F910F9108958F92D5
:105760009F92AF92BF92EF92FF920F931F93CF93AE
:10577000DF938C01D62F7A01B22E0E94E22D9C017C
:1057800033272B32310529F02D323105A9F46894E5
:10579000B7F8D15061F480E0DF91CF911F910F9164
:1057A000FF90EF90BF90AF909F908F900895C801A9
:1057B0000E94E22D97FDEFCFCB2DCD7F2B2D2073B7
:1057C000F9F48033E9F4AA24AA94AD0E89F0C80153
:1057D0000E94E22D97FD0CC0282F2F7D283561F403
:1057E000C264D25029F0C8010E94E22D97FF08C080
:1057F000812C912C54011BC0B6FE2BC0C260DA2D47
:10580000812C912C540120ED280F283028F1C4FD63
:1058100009C02A3008F1C6FF05C02F7D3FEE320FC8
:105820003630C8F0B8010E94992EC1FFB4CFC7FF2F
:1058300008C0B094A09490948094811C911CA11CE9
:10584000B11C2C2FB501A401C7010E946C2B81E073
:10585000A3CFC261D4CF27504C2FC501B4010E9401
:10586000782B4B015C01C260D15009F3C8010E9442
:10587000E22D97FFC8CFDBCFB0E0A0E0E2E4FCE28E
:105880000C94372D5C01EB01742E652EFC01178200
:105890001682C12CF501F380FE01F3FC8591F3FE25
:1058A0008191182FEF018823E9F090E00E94CE2D1E
:1058B000892B21F0C5010E94962BECCF153241F4C3
:1058C000FE01F3FC1591F3FE1191EF01153269F41D
:1058D000C5010E94E22D97FD9DC01817D9F2B501B0
:1058E0000E94992E8C2D90E099C000E01A3231F47C
:1058F000F3FC1591F3FE1191EF0101E0D12C20EDA5
:10590000210F2A3048F101FF37C0DD2059F3183646
:10591000B1F11C3609F43DC0112321F3612F70E071
:105920008DE097E00E94D72D892BE1F2F12CE12C3C
:1059300000FD06C0E72DF62DE190F1907E2E6F2E32
:105940001E3679F5F5014681578170E060E0202F21
:10595000C7010E946C2B9ECF02606D2D70E090E01D
:1059600080E040E20E94782BD62EFE01F3FC1591D8
:10597000F3FE1191EF01C3CFDD24DA94C8CFFE010D
:10598000F3FC1591F3FE1191EF01183609F0C4CF25
:1059900008600460FE01F3FC1591F3FE1191EF0124
:1059A000BBCF1336B1F401FD02C0DD24D394C50191
:1059B0000E94E22D97FD2EC0E114F10419F0F701C9
:1059C00081937F01DA94D110F2CF00FD63CFC394AD
:1059D00061CFC5010E94962B97FD1CC01F3609F4AC
:1059E00040C030F4143641F0193639F0006405C077
:1059F000133711F11537D1F70062202FA7016D2D54
:105A0000C5010E94AF2B8111E0CFF5018381807326
:105A100009F468CF8FEF9FEFC11064CFCDB7DEB729
:105A2000EEE00C94532DE114F10419F0F70181928A
:105A30007F01DA94DD2071F0C5010E94E22D4C0156
:105A400097FD08C00E94CE2D892B69F3B501C401D2
:105A50000E94992EE114F10409F4B7CFF7011082E6
:105A6000B4CF0061CACF2F923F924F925F926F9254
:105A70007F928F929F92AF92BF92CF92DF92EF92DE
:105A8000FF920F931F93CF93DF93CDB7DEB7CA1B5F
:105A9000DB0B0FB6F894DEBF0FBECDBF09942A888A
:105AA000398848885F846E847D848C849B84AA8432
:105AB000B984C884DF80EE80FD800C811B81AA81BF
:105AC000B981CE0FD11D0FB6F894DEBF0FBECDBF8A
:105AD000ED010895AA1BBB1B51E107C0AA1FBB1F04
:105AE000A617B70710F0A61BB70B881F991F5A956A
:105AF000A9F780959095BC01CD01089597FB072EDD
:105B000016F4009407D077FD09D00E946A2D07FC97
:105B100005D03EF4909581959F4F089570956195BD
:105B20007F4F0895A1E21A2EAA1BBB1BFD010DC0D9
:105B3000AA1FBB1FEE1FFF1FA217B307E407F5073D
:105B400020F0A21BB30BE40BF50B661F771F881F19
:105B5000991F1A9469F760957095809590959B01AF
:105B6000AC01BD01CF010895A29FB001B39FC00158
:105B7000A39F700D811D1124911DB29F700D811D79
:105B80001124911D08950E94B42DA59F900DB49FDE
:105B9000900DA49F800D911D1124089591110C94D6
:105BA0000F2F803219F089508550C8F70895FC01F5
:105BB0000590061621F00020D9F7C001089531970D
:105BC000CF010895CF93DF93EC012B8120FF2FC0ED
:105BD00026FF0CC02F7B2B838E819F8101969F8394
:105BE0008E838A8190E0DF91CF91089522FF14C0C7
:105BF000E881F9818081082E000C990B20620097C2
:105C0000A9F03196F983E8832E813F812F5F3F4FC2
:105C10003F832E839927E7CFEA85FB85099597FF78
:105C2000F3CF2B81019631F080E2282B2B838FEF6D
:105C30009FEFD9CF80E1F9CF0F931F93CF93DF93DD
:105C4000182F092FEB018B8181FD09C01FEF0FEF8A
:105C5000812F902FDF91CF911F910F91089582FF97
:105C600014C02E813F818C819D81281739073CF417
:105C7000E881F981CF0101969983888310838E8111
:105C80009F8101969F838E83E3CFE885F985812FDD
:105C90000995892BA1F3DACFB0E0A0E0E2E5FEE2BE
:105CA0000C94412DAE01495F5F4FDA016D917D91FA
:105CB000AD0106EB15E0F80182819381DC011396BA
:105CC0002C911397286013962C930E94652AD80173
:105CD0001296ED91FC912381277F2383E4E00C94BD
:105CE0005D2DAEE0B0E0E7E7FEE20C94432D8DE0E1
:105CF0008C838B899C899A838983AE01495E5F4F2F
:105D00006D897E89CE0101960E943C2C2E96E2E0A0
:105D10000C945F2DCF93DF93EC018B8188608B8394
:105D2000CE010E94652A2B81277F2B83DF91CF91A3
:105D30000895FB01238120FF11C026FD0FC08F3F76
:105D4000980771F082832F7D206423832681378119
:105D50002150310937832683992708958FEF9FEFCC
:105D60000895FA01AA27283051F1203181F1E894F1
:105D70006F936E7F6E5F7F4F8F4F9F4FAF4FB1E03E
:105D80003ED0B4E03CD0670F781F891F9A1FA11D39
:105D9000680F791F8A1F911DA11D6A0F711D811D3A
:105DA000911DA11D20D009F468943F912AE0269FFF
:105DB00011243019305D3193DEF6CF010895462F5E
:105DC0004770405D4193B3E00FD0C9F7F6CF462F3F
:105DD0004F70405D4A3318F0495D31FD40524193A8
:105DE00002D0A9F7EACFB4E0A69597958795779565
:105DF0006795BA95C9F700976105710508959B01EC
:105E0000AC010A2E06945795479537952795BA9574
:105E1000C9F7620F731F841F951FA01D089599274E
:105E200088270895FB01DC014150504048F0019063
:105E30000D920020C9F701C01D9241505040E0F77B
:105E40000895EF92FF920F931F93CF93DF937B01FF
:105E5000DB0113962C9110E000E021FD0EC00FEF46
:105E60001FEF0FC0D7011896ED91FC91B70109956E
:105E7000892B11F00FEF1FEFCE01EC0189918111F9
:105E8000F1CFC801CDB7DEB7E6E00C945B2DF999F0
:105E9000FECF92BD81BDF89A992780B50895A8E1FB
:105EA000B0E042E050E00C947D2F262FF999FECF10
:105EB00092BD81BDF89A019700B4021639F01FBA5D
:105EC00020BD0FB6F894FA9AF99A0FBE089501967C
:105ED000272F0E94562F0C94552F262FF999FECF6D
:105EE0001FBA92BD81BD20BD0FB6F894FA9AF99AF7
:105EF0000FBE01960895DC01CB01FC01F999FECF9C
:105F000006C0F2BDE1BDF89A319600B40D92415041
:105F10005040B8F708955058BB27AA270E94A32FD6
:105F20000C94ED300E94DF3038F00E94E63020F013
:105F300039F49F3F19F426F40C94DC300EF4E0950C
:105F4000E7FB0C94D630E92F0E94FE3058F3BA17C5
:105F5000620773078407950720F079F4A6F50C947F
:105F600020310EF4E0950B2EBA2FA02D0B01B901B4
:105F700090010C01CA01A0011124FF27591B99F0BF
:105F8000593F50F4503E68F11A16F040A22F232FCB
:105F9000342F4427585FF3CF469537952795A7951B
:105FA000F0405395C9F77EF41F16BA0B620B730BC2
:105FB000840BBAF09150A1F0FF0FBB1F661F771F33
:105FC000881FC2F70EC0BA0F621F731F841F48F4E8
:105FD000879577956795B795F7959E3F08F0B0CF71
:105FE0009395880F08F09927EE0F97958795089558
:105FF0000E940C300C94ED300E94E63058F00E9464
:10600000DF3040F029F45F3F29F00C94D630511175
:106010000C9421310C94DC300E94FE3068F39923FB
:10602000B1F3552391F3951B550BBB27AA27621794
:106030007307840738F09F5F5F4F220F331F441FA1
:10604000AA1FA9F335D00E2E3AF0E0E832D09150D5
:106050005040E695001CCAF72BD0FE2F29D0660FC2
:10606000771F881FBB1F261737074807AB07B0E805
:1060700009F0BB0B802DBF01FF2793585F4F3AF00B
:106080009E3F510578F00C94D6300C9421315F3F3F
:10609000E4F3983ED4F3869577956795B795F79591
:1060A0009F5FC9F7880F911D9695879597F9089579
:1060B000E1E0660F771F881FBB1F62177307840715
:1060C000BA0720F0621B730B840BBA0BEE1F88F724
:1060D000E09508950E94063188F09F5798F0B92FF7
:1060E0009927B751B0F0E1F0660F771F881F991F0D
:1060F0001AF0BA95C9F714C0B13091F00E9420315E
:10610000B1E008950C942031672F782F8827B85F6D
:1061100039F0B93FCCF3869577956795B395D9F764
:106120003EF490958095709561957F4F8F4F9F4F6E
:106130000895E89409C097FB3EF49095809570957A
:1061400061957F4F8F4F9F4F9923A9F0F92F96E9C3
:10615000BB279395F695879577956795B795F11138
:10616000F8CFFAF4BB0F11F460FF1BC06F5F7F4FD5
:106170008F4F9F4F16C0882311F096E911C07723E7
:1061800021F09EE8872F762F05C0662371F096E8F0
:10619000862F70E060E02AF09A95660F771F881FBF
:1061A000DAF7880F9695879597F9089597F99F677D
:1061B00080E870E060E008959FEF80EC089500248F
:1061C0000A941616170618060906089500240A945C
:1061D00012161306140605060895092E0394000CE2
:1061E00011F4882352F0BB0F40F4BF2B11F460FF71
:1061F00004C06F5F7F4F8F4F9F4F089557FD90589A
:10620000440F551F59F05F3F71F04795880F97FB7A
:10621000991F61F09F3F79F0879508951216130634
:106220001406551FF2CF4695F1DF08C01616170663
:106230001806991FF1CF8695710561050894089598
:10624000E894BB2766277727CB0197F90895F89440
:10625000FFCFFFFF14FFFF000000000000C05DFF44
:10626000FFFFFFFFFFFFFFCAE008FFFEFEFDFDFC92
:10627000FCFBFBFAFAF9F9F8F8F7F7F6F6F5F5F49E
:10628000F4F3F3F2F2F2F1F1F0F0EFEFEEEEEDED08
:10629000EDECECEBEBEAEAE9E9E9E8E8E7E7E6E66A
:1062A000E6E5E5E4E4E3E3E3E2E2E1E1E1E0E0DFC7
:1062B000DFDFDEDEDDDDDDDCDCDCDBDBDADADAD91C
:1062C000D9D8D8D8D7D7D7D6D6D6D5D5D4D4D4D36D
:1062D000D3D3D2D2D2D1D1D1D0D0CFCFCFCECECEB8
:1062E000CDCDCDCCCCCCCBCBCBCACAC9C9C8C7C706
:1062F000C6C5C5C4C4C3C2C2C1C1C0BFBFBEBEBD86
:10630000BDBCBBBBBABAB9B9B8B8B7B6B6B5B5B407
:10631000B4B3B3B2B2B1B1B0B0AFAFAEAEADADAC7D
:10632000ACABABABAAAAA9A9A8A8A7A7A6A6A6A5E5
:10633000A5A4A4A3A3A3A2A2A1A1A0A0A09F9F9E45
:106340009E9E9D9D9C9C9C9B9B9B9A9A999999989B
:1063500098989797969696959595949494939393E9
:106360009292929191919090908F8F8E8D8D8C8C36
:106370008B8A8A89888887878686858484838382B6
:1063800082818180807F7F7E7E7D7D7C7C7B7B7A2D
:106390007A7979787877777676757575747473739A
:1063A00072727271717070706F6F6E6E6E6D6D6DF6
:1063B0006C6C6B6B6B6A6A6A696969686867676746
:1063C000666666656565646464646363636262628D
:1063D000616161606060605F5F5F5E5E5E5E5D5DCB
:1063E0005D5C5C5C5C5B5B5B5B5A04022E032E00B5
:00000001FF
